:100000000C942A000C9447000C9447000C94470071
:100010000C9447000C9447000C9447000C94470044
:100020000C9447000C9447000C9447000C94470034
:100030000C9447000C9447000C9447000C94470024
:100040000C9447000C9447000C9447000C94470014
:100050000C94470011241FBECFE5D8E0DEBFCDBF12
:1000600011E0A0E6B0E0E6E4F2E702C005900D92F0
:10007000A63FB107D9F711E0A6EFB1E001C01D928C
:10008000AB3FB107E1F70E94B8370C9421390C94CB
:100090000000EF92FF920F93DF93CF93CDB7DEB7BF
:1000A00060970FB6F894DEBF0FBECDBFA82F002318
:1000B00009F461C07E010894E11CF11C88E0F7019D
:1000C00011928A95E9F729833A834B835C836D8388
:1000D0007E83AF83988780E2801BE82FFF27E7FDB0
:1000E000F0954D815E816F817885181684F01D86AC
:1000F0001E861F86188A882799278E1B9F0B04C08F
:1001000076956795579547958A95D2F728C0202F01
:10011000332727FD3095DB01CA01022E04C0B695B6
:10012000A795979587950A94D2F78D879E87AF8775
:10013000B88B04C0440F551F661F771FEA95D2F78E
:1001400089819A81AB81BC8104C0B695A7959795AA
:1001500087952A95D2F7482B592B6A2B7B2B4987F9
:100160005A876B877C8729853A854B855C856D85A9
:100170007E85AF8598898A2F60960FB6F894DEBF8A
:100180000FBECDBFCF91DF910F91FF90EF900895FB
:10019000EF92FF920F931F937B018C0120E030E0E0
:1001A00040E05FE40E94740488238CF0C801B7012A
:1001B00020E030E040E05FE40E9440020E9432050F
:1001C0009B01AC01205030404040504806C0C8015F
:1001D000B7010E9432059B01AC01B901CA011F9110
:1001E0000F91FF90EF900895A0E0B0E0EAEFF0E00B
:1001F0000C94EA38DC012B01FA019C91923008F44E
:1002000039C1EB018881823008F433C1943069F43C
:10021000843009F02FC111969C911197898198170C
:1002200009F428C1ADE9B0E025C1843009F421C149
:100230008230A9F4923009F01DC19A01AD0188E025
:10024000EA010990AE01E90109929E018150C1F7CE
:10025000E201898111969C918923818308C19230A2
:1002600009F407C112962D903C901397EB018A81F7
:100270009B811496AD90BD90CD90DC901797EC804B
:10028000FD800E811F819101281B390BB90137FFB9
:1002900004C066277727621B730B603271050CF070
:1002A00061C0121613066CF537014801062E04C012
:1002B00096948794779467940A94D2F721E030E07B
:1002C00040E050E004C0220F331F441F551F6A95C1
:1002D000D2F721503040404050402E213F21402352
:1002E0005123211531054105510521F021E030E070
:1002F00040E050E079018A01E628F7280829192909
:100300003CC0232BD1F1260E371E35014601062EA7
:1003100004C096948794779467940A94D2F721E066
:1003200030E040E050E004C0220F331F441F551F4F
:100330006A95D2F721503040404050402A213B215D
:100340004C215D21211531054105510521F021E0A8
:1003500030E040E050E059016A01A628B728C828DB
:10036000D9280BC0821593052CF01C01AA24BB24AC
:10037000650103C0EE24FF24870111969C91D201F0
:1003800011968C91981709F445C0992339F0A8016A
:1003900097012A193B094C095D0906C0A601950180
:1003A0002E193F09400B510B57FD08C011823382B3
:1003B000228224833583468357831DC081E0818355
:1003C0003382228288279927DC01821B930BA40B9E
:1003D000B50B84839583A683B7830DC0220F331F8B
:1003E000441F551F2483358346835783828193811D
:1003F0000197938382832481358146815781DA0175
:10040000C9010197A109B1098F5F9F4FAF4FBF434A
:1004100028F30BC0918333822282EA0CFB1C0C1D53
:100420001D1DE482F5820683178383E08083248187
:1004300035814681578157FF1AC0C901AA2797FD08
:10044000A095BA2F81709070A070B07056954795A6
:1004500037952795822B932BA42BB52B84839583DB
:10046000A683B78382819381019693838283DF0180
:1004700001C0D201CD01CDB7DEB7E2E10C9406395F
:10048000A0E2B0E0E6E4F2E00C94F63869837A8307
:100490008B839C832D833E834F835887E9E0EE2E28
:1004A000F12CEC0EFD1ECE010196B7010E94230730
:1004B0008E010F5E1F4FCE010596B8010E942307E3
:1004C0008A8991E089278A8BC701B801AE01475E0E
:1004D0005F4F0E94F4000E944E06A096E6E00C9446
:1004E0001239A0E2B0E0E7E7F2E00C94F638698355
:1004F0007A838B839C832D833E834F835887F9E0D7
:10050000EF2EF12CEC0EFD1ECE010196B7010E94DC
:1005100023078E010F5E1F4FCE010596B8010E9482
:100520002307C701B801AE01475E5F4F0E94F40088
:100530000E944E06A096E6E00C941239A0E2B0E0CC
:10054000E4EAF2E00C94EA3869837A838B839C8333
:100550002D833E834F835887CE010196BE01675F8E
:100560007F4F0E942307CE010596BE016F5E7F4F2D
:100570000E9423079985923088F089898230C8F0DB
:10058000943019F4823051F404C0843029F492304C
:1005900081F48DE990E0C6C0923049F420E09A855C
:1005A0008A89981321E02A87CE010996BBC0823040
:1005B00049F420E09A858A89981321E02A8BCE019C
:1005C0004196B0C02D843E844F8458886D887E88C3
:1005D0008F88988CEE24FF248701AA24BB24650110
:1005E00040E050E060E070E0E0E0F0E0C1018170E8
:1005F0009070892BE9F0E60CF71C081D191D9A0173
:10060000AB012A0D3B1D4C1D5D1D80E090E0A0E07C
:10061000B0E0E614F7040805190520F481E090E045
:10062000A0E0B0E0BA01A901480F591F6A1F7B1F63
:10063000AA0CBB1CCC1CDD1C97FE08C081E090E01E
:10064000A0E0B0E0A82AB92ACA2ADB2A3196E03213
:10065000F10549F0660C771C881C991C5694479448
:1006600037942794C3CFFA85EA892B893C898B85F7
:100670009C85280F391F2E5F3F4F17C0CA0181701C
:100680009070892B61F016950795F794E79480E0B8
:1006900090E0A0E0B0E8E82AF92A0A2B1B2B769517
:1006A0006795579547952F5F3F4F77FDE7CF0CC074
:1006B000440F551F661F771F17FD4160EE0CFF1C8E
:1006C000001F111F21503040403090E0590790E04A
:1006D000690790E4790760F32B8F3C8FDB01CA0137
:1006E0008F779070A070B07080349105A105B1052E
:1006F00061F447FD0AC0E114F1040105110529F078
:10070000405C5F4F6F4F7F4F40781A8EFE1711F09D
:1007100081E08A8F4D8F5E8F6F8F78A383E0898F02
:10072000CE0149960E944E06A096E2E10C9406394D
:10073000A8E1B0E0EEE9F3E00C94F23869837A8343
:100740008B839C832D833E834F835887B9E0EB2EA8
:10075000F12CEC0EFD1ECE010196B7010E9423077D
:100760008E010F5E1F4FCE010596B8010E94230730
:100770002985223008F47EC03989323010F4B8015E
:100780007CC08A859A8989278A87243011F0223093
:1007900031F4231709F06EC06DE970E06EC034309B
:1007A00039F41D861E861F86188A1C861B8604C087
:1007B000323021F484E08987B7015FC02B853C8506
:1007C0008B899C89281B390B3C872B87ED84FE8401
:1007D0000F851889AD88BE88CF88D88CEA14FB04B1
:1007E0000C051D0540F4EE0CFF1C001F111F2150CD
:1007F00030403C872B8720E030E040E050E080E054
:1008000090E0A0E0B0E460E070E0EA14FB040C05C6
:100810001D0540F0282B392B4A2B5B2BEA18FB08CF
:100820000C091D09B695A79597958795EE0CFF1CA9
:10083000001F111F6F5F7F4F6F31710531F7DA01B4
:10084000C9018F779070A070B07080349105A105B8
:10085000B10561F427FD0AC0E114F1040105110599
:1008600029F0205C3F4F4F4F5F4F20782D873E8708
:100870004F87588BBE01675F7F4FCB010E944E06AA
:100880006896EAE00C940E39A8E1B0E0EAE4F4E0FE
:100890000C94F63869837A838B839C832D833E8303
:1008A0004F83588789E0E82EF12CEC0EFD1ECE0117
:1008B0000196B7010E9423078E010F5E1F4FCE01E4
:1008C0000596B8010E9423078985823040F0898906
:1008D000823028F0C701B8010E949B0701C08FEF4A
:1008E0006896E6E00C941239A8E1B0E0EAE7F4E09B
:1008F0000C94F63869837A838B839C832D833E83A3
:100900004F83588789E0E82EF12CEC0EFD1ECE01B6
:100910000196B7010E9423078E010F5E1F4FCE0183
:100920000596B8010E9423078985823040F08989A5
:10093000823028F0C701B8010E949B0701C08FEFE9
:100940006896E6E00C941239A8E1B0E0EAEAF4E037
:100950000C94F63869837A838B839C832D833E8342
:100960004F83588789E0E82EF12CEC0EFD1ECE0156
:100970000196B7010E9423078E010F5E1F4FCE0123
:100980000596B8010E9423078985823040F0898945
:10099000823028F0C701B8010E949B0701C081E0A6
:1009A0006896E6E00C941239A8E0B0E0EAEDF4E0D5
:1009B0000C94F3389B01AC0183E08983DA01C9010F
:1009C0008827B7FD83959927AA27BB27B82E21151D
:1009D00031054105510519F482E089833AC0882325
:1009E000A9F0203080E0380780E0480780E8580709
:1009F00029F460E070E080E09FEC30C0EE24FF243A
:100A00008701E21AF30A040B150B02C079018A016F
:100A10008EE1C82ED12CDC82CB82ED82FE820F8348
:100A20001887C801B7010E94FF050197181619061B
:100A300084F4082E04C0EE0CFF1C001F111F0A9442
:100A4000D2F7ED82FE820F831887C81AD90ADC829A
:100A5000CB82BA82CE0101960E944E062896E9E02A
:100A60000C940F39ACE0B0E0E8E3F5E00C94FA3810
:100A700069837A838B839C83CE010196BE016B5F71
:100A80007F4F0E9423078D81823061F1823050F1C7
:100A9000843021F48E81882351F12EC02F81388536
:100AA00037FD20C06E812F3131051CF06623F9F02F
:100AB00023C08EE190E0821B930B29853A854B85FC
:100AC0005C8504C056954795379527958A95D2F74A
:100AD0006623B1F050954095309521953F4F4F4F8B
:100AE0005F4F0EC020E030E040E050E009C02FEF43
:100AF0003FEF4FEF5FE704C020E030E040E050E818
:100B0000B901CA012C96E2E00C941639A8E0B0E0D5
:100B1000ECE8F5E00C94F2387B018C01611571056D
:100B20008105910519F482E0898360C083E089839F
:100B30008EE1C82ED12CDC82CB82ED82FE820F8327
:100B40001887C801B7010E94FF05FC013197F7FF24
:100B50003BC0222733272E1B3F0B57016801022E73
:100B600004C0D694C794B794A7940A94D2F740E0EF
:100B700050E060E070E081E090E0A0E0B0E004C010
:100B8000880F991FAA1FBB1F2A95D2F70197A109A9
:100B9000B1098E219F21A023B1230097A105B105A2
:100BA00021F041E050E060E070E04A295B296C29C7
:100BB0007D294D835E836F8378878EE190E08E1B65
:100BC0009F0B9C838B8312C0309781F00E2E04C044
:100BD000EE0CFF1C001F111F0A94D2F7ED82FE825B
:100BE0000F831887CE1ADF0ADC82CB821A82CE01ED
:100BF00001960E944E062896EAE00C940E39EF9278
:100C0000FF920F931F937B018C0180E0E81680E038
:100C1000F80681E0080780E0180788F48FEFE816EF
:100C2000F1040105110531F028F088E090E0A0E022
:100C3000B0E017C080E090E0A0E0B0E012C080E03B
:100C4000E81680E0F80680E0080781E0180728F041
:100C500088E190E0A0E0B0E004C080E190E0A0E096
:100C6000B0E020E230E040E050E0281B390B4A0BB6
:100C70005B0B04C016950795F794E7948A95D2F715
:100C8000F701EB55FF4F8081281B310941095109BC
:100C9000C9011F910F91FF90EF900895DF92EF929D
:100CA000FF920F931F93FC01E480F580068117816A
:100CB000D1808081823048F480E090E0A0E1B0E013
:100CC000E82AF92A0A2B1B2BA5C0843009F49FC0FF
:100CD000823021F4EE24FF24870105C0E114F104E1
:100CE0000105110519F4E0E0F0E096C0628173811E
:100CF0009FEF623879070CF05BC022E83FEF261BBC
:100D0000370B2A3131052CF020E030E040E050E094
:100D10002AC0B801A701022E04C0769567955795A1
:100D200047950A94D2F781E090E0A0E0B0E004C0DB
:100D3000880F991FAA1FBB1F2A95D2F70197A109F7
:100D4000B1098E219F21A023B1230097A105B105F0
:100D500021F081E090E0A0E0B0E09A01AB01282B07
:100D6000392B4A2B5B2BDA01C9018F779070A07069
:100D7000B07080349105A105B10539F427FF09C091
:100D8000205C3F4F4F4F5F4F04C0215C3F4F4F4FA0
:100D90005F4FE0E0F0E02030A0E03A07A0E04A0733
:100DA000A0E45A0710F0E1E0F0E079018A0127C0E1
:100DB0006038710564F5FB01E158FF4FD801C701A8
:100DC0008F779070A070B07080349105A105B10547
:100DD00039F4E7FE0DC080E490E0A0E0B0E004C08C
:100DE0008FE390E0A0E0B0E0E80EF91E0A1F1B1FA1
:100DF00017FF05C016950795F794E794319687E09D
:100E000016950795F794E7948A95D1F705C0EE24D7
:100E1000FF248701EFEFF0E06E2F67956627679557
:100E2000902F9F77D794DD24D7948E2F8695492FC6
:100E3000462B582F5D29B701CA011F910F91FF90D2
:100E4000EF90DF900895FC01DB0140815181228108
:100E5000622F6F7770E0221F2227221F9381892F34
:100E6000880F822B282F30E0991F9927991F119600
:100E70009C93119721153105A9F54115510561057F
:100E8000710511F482E037C082E89FEF13969C93BE
:100E90008E9312979A01AB0167E0220F331F441F14
:100EA000551F6A95D1F783E08C930DC0220F331F35
:100EB000441F551F12968D919C911397019713967D
:100EC0009C938E931297203080E0380780E048078B
:100ED00080E4580758F314962D933D934D935C93FB
:100EE000179708952F3F310579F441155105610594
:100EF000710519F484E08C93089564FF03C081E0C8
:100F00008C9312C01C9210C02F57304013963C9304
:100F10002E93129783E08C9387E0440F551F661F32
:100F2000771F8A95D1F7706414964D935D936D93F6
:100F30007C93179708951F93DC01FB019C919230DD
:100F400008F447C08081823008F443C0943051F4E3
:100F500011961C91843099F58181682F70E0611B96
:100F600071093FC0843021F0923031F48230B9F100
:100F70008181882389F12DC011961C9111978230AF
:100F8000F1F081811817D9F412962D913C911397A5
:100F9000828193818217930794F028173907BCF058
:100FA00014968D919D910D90BC91A02D2481358139
:100FB00046815781281739074A075B0718F4112320
:100FC00041F00AC082179307A407B50740F4112324
:100FD00019F061E070E005C06FEF7FEF02C060E0E4
:100FE00070E0CB011F910895DF93CF9300D000D024
:100FF000CDB7DEB79A838983E981FA818081282F72
:1010000030E03C832B838B819C818330910554F4A9
:101010002B813C812130310584F48B819C810097A8
:1010200039F014C02B813C812330310559F00EC0BA
:1010300089819A810E944D0A09C089819A810E9402
:10104000460B04C089819A810E94880D0F900F90F1
:101050000F900F90CF91DF910895CF92DF92EF9292
:10106000FF920F931F93DF93CF93CDB7DEB72E97E9
:101070000FB6F894DEBF0FBECDBF89836A835C8351
:101080004B838981282F30E03E872D874D855E85F3
:101090004130510509F487C08D859E8582309105C8
:1010A0002CF4ED85FE85309771F0E8C12D853E85E5
:1010B0002230310509F4F5C04D855E854330510578
:1010C00009F46DC1DBC18A81E82FF0E0FC87EB8772
:1010D0002B853C852115310531F04B855C854130F0
:1010E000510579F1CBC10CE510E04B815C81CA015F
:1010F0009C01220F331FC9019695982F8827979539
:101100008795821B930B840F951FCC01A0E0B0E064
:10111000BC01CD010E948605DC01CB01BC01CD01E3
:1011200020E030E048EC52E40E949803DC01CB015F
:10113000BC01CD010E94C800DC01CB01F801808315
:101140009DC10CE510E08B819C81CC01A0E0B0E05A
:10115000BC01CD010E9486059B01AC0160E070E0FE
:1011600088EC92E40E944002DC01CB01BC01CD017D
:1011700020E030E04FE753E40E949E02DC01CB0107
:10118000BC01CD0120E030E048EC52E40E9498031D
:10119000DC01CB01BC01CD010E94C800DC01CB0108
:1011A000F80180836BC18A81282F30E03A87298734
:1011B00049855A854115510531F089859A858130D7
:1011C000910571F15BC10AE410E02091F6013091C4
:1011D000F7018B819C81FC012E9FC0012F9F900DF8
:1011E0003E9F900D1124CC01A0E0B0E0BC01CD01E8
:1011F0000E948605DC01CB01BC01CD0120E030E07E
:1012000048EC52E40E949803DC01CB01BC01CD0103
:101210000E94C800DC01CB01F801918380832EC1BC
:101220000F2EFAE4CF2EDD24F02D8B819C81CC0192
:10123000A0E0B0E0BC01CD010E9486059B01AC019D
:1012400060E070E088EC92E40E944002DC01CB0197
:101250007C018D018091F6019091F701CC01A0E015
:10126000B0E0BC01CD010E9486059B01AC01C80124
:10127000B7010E949E02DC01CB01BC01CD0120E040
:1012800030E048EC52E40E949803DC01CB01BC0141
:10129000CD010E94C800DC01CB01F601918380835F
:1012A000EDC08A81282F30E038872F834F81588501
:1012B0004115510531F08F8198858130910571F18B
:1012C000DDC008E410E02091F6013091F7018B8138
:1012D0009C81FC012E9FC0012F9F900D3E9F900D81
:1012E0001124CC01A0E0B0E0BC01CD010E94860534
:1012F000DC01CB01BC01CD0120E030E048EC52E440
:101300000E949803DC01CB01BC01CD010E94C80002
:10131000DC01CB01F80191838083B0C00F2EF8E48B
:10132000CF2EDD24F02D8B819C81CC01A0E0B0E09C
:10133000BC01CD010E9486059B01AC0160E070E01C
:1013400088EC92E40E944002DC01CB017C018D011B
:101350008091F6019091F701CC01A0E0B0E0BC01D2
:10136000CD010E9486059B01AC01C801B7010E9416
:101370009E02DC01CB01BC01CD0120E030E048EC55
:1013800052E40E949803DC01CB01BC01CD010E9414
:10139000C800DC01CB01F601918380836FC08A8194
:1013A000282F30E03E832D834D815E81411551050C
:1013B00031F08D819E818130910579F15FC003E428
:1013C00010E04B815C81CA019C01220F331FC901CF
:1013D0009695982F882797958795821B930B840F56
:1013E000951FCC01A0E0B0E0BC01CD010E948605B4
:1013F000DC01CB01BC01CD0120E030E048EC52E43F
:101400000E949803DC01CB01BC01CD010E94C80001
:10141000DC01CB01F801808331C003E410E08B8153
:101420009C81CC01A0E0B0E0BC01CD010E9486050A
:101430009B01AC0160E070E088EC92E40E94400205
:10144000DC01CB01BC01CD0120E030E04FE753E4EB
:101450000E949E02DC01CB01BC01CD0120E030E006
:1014600048EC52E40E949803DC01CB01BC01CD01A1
:101470000E94C800DC01CB01F80180832E960FB6D4
:10148000F894DEBF0FBECDBFCF91DF911F910F91BA
:10149000FF90EF90DF90CF9008950F931F93DF930D
:1014A000CF9300D000D000D0CDB7DEB79A83898328
:1014B000A7E3B0E0E7E3F0E0808188608C93E3E5A8
:1014C000F0E01082A3E5B0E0E3E5F0E09081E9818F
:1014D000FA818181880F880F880F892B80648C9313
:1014E000A3E5B0E0E3E5F0E09081E981FA81838152
:1014F0008295807F892B80628C93E981FA81828139
:10150000282F30E03E832D838D819E81843091058C
:10151000F1F0ED81FE81E530F1053CF48D819E8195
:1015200000968330910550F507C08D819E81069706
:101530008430910518F517C0A3E5B0E0E3E5F0E0CD
:101540009081E981FA818281892B8C9317C0A3E570
:10155000B0E0E3E5F0E09081E981FA818281815099
:10156000892B8C930BC0A3E5B0E0E3E5F0E090811C
:10157000E981FA8182818250892B8C93ECE5F0E03D
:101580001082E981FA818381282F30E03C832B830C
:101590008B819C81009731F0EB81FC81E130F1057A
:1015A00091F166C00CE510E0E981FA818085482F51
:1015B00050E0CA019C01220F331FC9019695982F54
:1015C000882797958795821B930B840F951FCC01D5
:1015D000A0E0B0E0BC01CD010E948605DC01CB019A
:1015E000BC01CD0120E030E048EC52E40E949803B9
:1015F000DC01CB01BC01CD010E94C800DC01CB01A4
:10160000F801808335C00CE510E0E981FA8180851E
:10161000882F90E0AA2797FDA095BA2FBC01CD0195
:101620000E94D4049B01AC0160E070E088EC92E47D
:101630000E944002DC01CB01BC01CD0120E030E082
:101640004FE753E40E949E02DC01CB01BC01CD01B7
:1016500020E030E048EC52E40E949803DC01CB012A
:10166000BC01CD010E94C800DC01CB01F8018083E0
:10167000E2E5F0E0108226960FB6F894DEBF0FBECA
:10168000CDBFCF91DF911F910F910895CF92DF923F
:10169000EF92FF920F931F93DF93CF93CDB7DEB7F7
:1016A0002E970FB6F894DEBF0FBECDBF9A83898305
:1016B000E981FA818081282F30E03E872D874D8592
:1016C0005E854130510531F08D859E8582309105D2
:1016D00049F00FC0A1E3B0E0E1E3F0E08081806277
:1016E0008C9307C0A1E3B0E0E1E3F0E0808180618A
:1016F0008C93EFE4F0E01082EEE4F0E01082AFE4CF
:10170000B0E0EFE4F0E0808182608C93AEE4B0E082
:10171000EEE4F0E09081E981FA818181880F880F01
:10172000880F892B80618C93E981FA818081E82F71
:10173000F0E0FC87EB872B853C852130310531F0CB
:101740004B855C854230510581F01CC0AFE4B0E0B0
:10175000EFE4F0E09081E981FA8183818295880F3E
:10176000880F807C892B80688C93AFE4B0E0EFE435
:10177000F0E09081E981FA8183818295807F892BD5
:1017800080628C93E981FA818281E82FF0E0FA8708
:10179000E98729853A8524303105F1F049855A8554
:1017A000453051053CF489859A8500968330910532
:1017B00050F507C089859A8506978430910518F5FC
:1017C00017C0AEE4B0E0EEE4F0E09081E981FA8188
:1017D0008281892B8C9317C0AEE4B0E0EEE4F0E098
:1017E0009081E981FA8182818150892B8C930BC091
:1017F000AEE4B0E0EEE4F0E09081E981FA8182812C
:101800008250892B8C93E981FA8186819781CC0162
:10181000A0E0B0E020E034E244EF50E0BC01CD01B4
:101820000E946738DC01CB01BC01CD010E94860516
:101830007B018C01E981FA8184819581CC01A0E052
:10184000B0E0BC01CD010E948605DC01CB01BC01EA
:10185000CD0120E030E04AE754E40E949E02DC0122
:10186000CB019C01AD01C801B7010E949803DC01C6
:10187000CB01BC01CD0120E030E040E85FE30E94F5
:101880004002DC01CB01BC01CD010E94C800DC019B
:10189000CB019093F7018093F601E6E4F0E08091AC
:1018A000F6019091F70191838083E981FA8180812B
:1018B000E82FF0E0F887EF832F813885213031055C
:1018C00039F04F8158854230510509F488C00DC167
:1018D000E981FA818381E82FF0E0FE83ED832D8199
:1018E0003E812115310531F04D815E814130510538
:1018F00089F1FBC00AE410E0E981FA818085282F94
:1019000030E08091F6019091F701FC012E9FC0011B
:101910002F9F900D3E9F900D1124CC01A0E0B0E0D0
:10192000BC01CD010E948605DC01CB01BC01CD01CB
:1019300020E030E048EC52E40E949803DC01CB0147
:10194000BC01CD010E94C800DC01CB01F8019183EC
:101950008083CBC00F2EFAE4CF2EDD24F02DE98159
:10196000FA818085882F90E0AA2797FDA095BA2F4D
:10197000BC01CD010E94D4049B01AC0160E070E089
:1019800088EC92E40E944002DC01CB017C018D01D5
:101990008091F6019091F701CC01A0E0B0E0BC018C
:1019A000CD010E9486059B01AC01C801B7010E94D0
:1019B0009E02DC01CB01BC01CD0120E030E048EC0F
:1019C00052E40E949803DC01CB01BC01CD010E94CE
:1019D000C800DC01CB01F6019183808386C0E981D8
:1019E000FA818381282F30E03C832B834B815C81FB
:1019F0004115510531F08B819C818130910589F130
:101A000074C008E410E0E981FA818085282F30E075
:101A10008091F6019091F701FC012E9FC0012F9F4C
:101A2000900D3E9F900D1124CC01A0E0B0E0BC01D0
:101A3000CD010E948605DC01CB01BC01CD0120E077
:101A400030E048EC52E40E949803DC01CB01BC0179
:101A5000CD010E94C800DC01CB01F8019183808395
:101A600044C00F2EF8E4CF2EDD24F02DE981FA8159
:101A70008085882F90E0AA2797FDA095BA2FBC01FA
:101A8000CD010E94D4049B01AC0160E070E088ECC1
:101A900092E40E944002DC01CB017C018D01809127
:101AA000F6019091F701CC01A0E0B0E0BC01CD01BE
:101AB0000E9486059B01AC01C801B7010E949E02ED
:101AC000DC01CB01BC01CD0120E030E048EC52E468
:101AD0000E949803DC01CB01BC01CD010E94C8002B
:101AE000DC01CB01F60191838083ECE4F0E011820C
:101AF00010822E960FB6F894DEBF0FBECDBFCF91E9
:101B0000DF911F910F91FF90EF90DF90CF9008959C
:101B10000F931F93DF93CF9300D000D0CDB7DEB7E4
:101B20009A838983A1E3B0E0E1E3F0E080818068FB
:101B30008C93E5E4F0E01082A5E4B0E0E5E4F0E0A9
:101B40009081E981FA818181880F880F880F892B24
:101B500080648C93A3E5B0E0E3E5F0E09081E98157
:101B6000FA8183818295807F892B80628C93E981C1
:101B7000FA818281883079F0E981FA818281893025
:101B800051F0A5E4B0E0E5E4F0E09081E981FA816C
:101B90008281892B8C93E3E4F0E01082E981FA8161
:101BA0008381282F30E03C832B838B819C8100979D
:101BB00031F0EB81FC81E130F10591F166C003E485
:101BC00010E0E981FA818085482F50E0CA019C012C
:101BD000220F331FC9019695982F882797958795CF
:101BE000821B930B840F951FCC01A0E0B0E0BC01D9
:101BF000CD010E948605DC01CB01BC01CD0120E0B6
:101C000030E048EC52E40E949803DC01CB01BC01B7
:101C1000CD010E94C800DC01CB01F801808335C0F2
:101C200003E410E0E981FA818085882F90E0AA27FB
:101C300097FDA095BA2FBC01CD010E94D4049B0151
:101C4000AC0160E070E088EC92E40E944002DC01AC
:101C5000CB01BC01CD0120E030E04FE753E40E940E
:101C60009E02DC01CB01BC01CD0120E030E048EC5C
:101C700052E40E949803DC01CB01BC01CD010E941B
:101C8000C800DC01CB01F8018083E4E4F0E01082BD
:101C90000F900F900F900F90CF91DF911F910F91A8
:101CA0000895DF93CF93CDB7DEB70E943C2C0E94FE
:101CB00080348DED91E00E94F4078EEE91E00E9459
:101CC000EC21CF91DF910895DF93CF93CDB7DEB7AD
:101CD0002F970FB6F894DEBF0FBECDBF9A878987C6
:101CE000CE0101969C878B87E6EEF1E0FE87ED87BB
:101CF000F8E0FF87ED85FE8500808D859E85019645
:101D00009E878D87EB85FC8500828B859C8501965F
:101D10009C878B879F8591509F87EF85EE2351F796
:101D200080E068E070E09E012F5F3F4FA9010E94B4
:101D300088228D819E81AF81B885E985FA8581876A
:101D40009287A387B48789819A81AB81BC81E98519
:101D5000FA8581839283A383B4838D819E81AF8131
:101D6000B88529813A814B815C81BC01CD010E94FB
:101D70004002DC01CB01E985FA8585839683A78340
:101D8000B087E985FA85218532854385548560E0F1
:101D900070E080E89FE30E949803DC01CB01E985B5
:101DA000FA8585879687A787B08BE985FA85818133
:101DB0009281A381B481BC01CD0120E030E048ECE8
:101DC00052E40E949E02DC01CB01E985FA8521855F
:101DD000328543855485BC01CD010E949803DC0106
:101DE000CB01BC01CD010E94C800DC01CB01E9851B
:101DF000FA8580832F960FB6F894DEBF0FBECDBF55
:101E0000CF91DF910895DF93CF93CDB7DEB7CD5556
:101E1000D0400FB6F894DEBF0FBECDBFFE01FF96D7
:101E200091838083FE01EF5BFF4F40835183628388
:101E300073830E94803480E00E946134CE01039657
:101E400027969FAF8EAF2797A0E6B0E02996BFAF49
:101E5000AEAF2997BCE02A96BFAF2A972996EEAD80
:101E6000FFAD2997008029968EAD9FAD29970196E9
:101E700029969FAF8EAF29972796AEADBFAD279716
:101E80000C922796EEADFFAD279731962796FFAFC0
:101E9000EEAF27972A96FFAD2A97F1502A96FFAF0B
:101EA0002A972A968FAD2A978823C1F683E0FE01F0
:101EB0003F96DF01982F1D929A95E9F7CE01039680
:101EC0000E943433FE01FF960190F081E02D85855C
:101ED0009685A785B089BC01CD010E94CF33DE0174
:101EE00052962C96BFAFAEAF2C97EFE6F0E02E9651
:101EF000FFAFEEAF2E97F5E02F96FFAF2F972E9600
:101F0000AEADBFAD2E970C902E96EEADFFAD2E97D9
:101F100031962E96FFAFEEAF2E972C96AEADBFAD9D
:101F20002C970C922C96EEADFFAD2C9731962C96FB
:101F3000FFAFEEAF2C972F96FFAD2F97F1502F9656
:101F4000FFAF2F972F968FAD2F978823C1F6CE0125
:101F500042960E94343381E00E946134DE0157963C
:101F60006196BFAFAEAF6197E5E7F0E06396FFAF74
:101F7000EEAF6397F7E06496FFAF64976396AEADFC
:101F8000BFAD63970C906396EEADFFAD639731964E
:101F90006396FFAFEEAF63976196AEADBFAD61974D
:101FA0000C926196EEADFFAD619731966196FFAFF1
:101FB000EEAF61976496FFAD6497F1506496FFAF02
:101FC000649764968FAD64978823C1F688E0FE011C
:101FD0007E96DF01982F1D929A95E9F7CE014796DC
:101FE0000E943433FE01FF960190F081E02D808144
:101FF000882F90E0A0E0B0E0BC01CD010E945033FA
:102000008091840090918500A0918600B091870016
:102010008EA39FA3A8A7B9A71AA6CE0186960E9451
:10202000343386E00E9461341A827EC020E430E4BA
:102030004EE752E062E070E080E090E00E948B2F7B
:102040008A818B5F8A83198210C022E032E042E0ED
:1020500052E062E070E080E090E00E948B2F8A8185
:102060008B5F8A8389818F5F8983FE01FF96019050
:10207000F081E02D81819281A381B481FE01EF5B2B
:10208000FF4FBC01CD0120813181428153810E94EB
:102090009803DC01CB01BC01CD010E94C800DC012A
:1020A000CB01982F8981891780F222E032E04EE738
:1020B00050E460E470E080E090E00E948B2F8A8121
:1020C0008B5F8A83198210C020E430E440E450E43E
:1020D00060E470E080E090E00E948B2F8A818B5F4B
:1020E0008A8389818F5F8983FE01FF960190F08149
:1020F000E02D85819681A781B085FE01EF5BFF4FC2
:10210000BC01CD0120813181428153810E9498031D
:10211000DC01CB01BC01CD010E94C800DC01CB0178
:10212000982F8981891780F28A81883708F47ECFB9
:1021300085E00E94613420E03EE348E05CE16AE231
:1021400070E080E090E00E948B2F19820DC028E0A3
:1021500038E048E058E068E070E080E090E00E94FD
:102160008B2F89818F5F8983FE01FF960190F0811B
:10217000E02D81819281A381B481FE01EF5BFF4F4D
:10218000BC01CD0120813181428153810E9498039D
:10219000DC01CB01BC01CD010E94C800DC01CB01F8
:1021A000982F8981891798F228E038E048E058E0B4
:1021B00068E070E080E090E00E948B2F19820DC0F3
:1021C00028E038E048E058E068E070E080E090E027
:1021D0000E948B2F89818F5F8983FE01FF9601907A
:1021E000F081E02D85819681A781B085FE01EF5BAE
:1021F000FF4FBC01CD0120813181428153810E947A
:102200009803DC01CB01BC01CD010E94C800DC01B8
:10221000CB01982F8981891798F22AE23CE148E0A6
:102220005EE360E070E080E090E00E948B2F84E04D
:102230000E946134DE019B966696BFAFAEAF669793
:10224000E9E8F0E06896FFAFEEAF6897F8E06996CE
:10225000FFAF69976896AEADBFAD68970C90689672
:10226000EEADFFAD689731966896FFAFEEAF689719
:102270006696AEADBFAD66970C926696EEADFFADBD
:10228000669731966696FFAFEEAF66976996FFAD9B
:102290006997F1506996FFAF699769968FAD699715
:1022A0008823C1F687E0FE01F396DF01982F1D9287
:1022B0009A95E9F7CE018B960E943433FE01FF9682
:1022C0000190F081E02D81859285A385B485BC01C4
:1022D000CD010E94CF33DE01DA966B96BFAFAEAF71
:1022E0006B97E8E9F0E06D96FFAFEEAF6D97F5E024
:1022F0006E96FFAF6E976D96AEADBFAD6D970C90BD
:102300006D96EEADFFAD6D9731966D96FFAFEEAF6A
:102310006D976B96AEADBFAD6B970C926B96EEADB5
:10232000FFAD6B9731966B96FFAFEEAF6B976E96E6
:10233000FFAD6E97F1506E96FFAF6E976E968FADB4
:102340006E978823C1F6CE01CA960E943433C35AD1
:10235000DF4F0FB6F894DEBF0FBECDBFCF91DF9138
:102360000895DF93CF93CDB7DEB781E061E041E020
:102370000E94753581E062E041E00E94753581E0A0
:1023800060E041E00E94753580E061E00E94CA365D
:1023900082E00E94D71188E20E94D7118FE00E944C
:1023A000D71181E00E94D711CF91DF9108950F934B
:1023B0001F93DF93CF93CDB7DEB7C95AD0400FB686
:1023C000F894DEBF0FBECDBFFE01E755FF4F8083FF
:1023D00081E061E040E00E94C63581E062E040E0DB
:1023E0000E94C635FE01EB55FF4F80E090E0A0E86B
:1023F000BFE380839183A283B3838E010F551F4F68
:10240000FE01EB55FF4F60817181828193812BEA40
:102410003AEA4AEA50E40E949E02DC01CB01F8014C
:1024200080839183A283B383FE01EF55FF4F6081C8
:1024300071818281938120E030E040E85FE30E9477
:10244000A404882334F4FE01E056FF4F81E080832A
:10245000E0C0FE01EF55FF4F608171818281938161
:1024600020E030E04FE753E40E94440418160CF0DB
:10247000C0C0FE01EB55FF4F608171818281938165
:1024800020E030E04AE754E40E949803DC01CB01ED
:10249000FE01E456FF4F80839183A283B3838E01B4
:1024A00008561F4FFE01E456FF4F60817181828103
:1024B000938120E030E04AE755E40E949E02DC016F
:1024C000CB01F80180839183A283B383FE01E85698
:1024D000FF4F608171818281938120E030E040E88C
:1024E0005FE30E94A404882344F4FE01EA56FF4FF0
:1024F00081E090E09183808364C0FE01E856FF4F45
:10250000608171818281938120E03FEF4FE757E442
:102510000E94440418160CF043C0FE01E456FF4F1D
:10252000608171818281938120E030E040E251E45A
:102530000E949E02DC01CB018E010A561F4FBC0196
:10254000CD010E94C800DC01CB01F801918380839A
:102550001FC0FE01EC56FF4F80E991E0918380831C
:10256000FE01EC56FF4F808191810197F1F7FE014A
:10257000EC56FF4F91838083DE01AA56BF4FFE01C8
:10258000EA56FF4F80819181019711969C938E931B
:10259000FE01EA56FF4F808191810097D1F64BC032
:1025A0008E010A561F4FFE01E856FF4F6081718170
:1025B000828193810E94C800DC01CB01F8019183E4
:1025C0008083DE01AE56BF4FFE01EA56FF4F808189
:1025D000918111969C938E93FE01EE56FF4F808160
:1025E00091810197F1F7FE01EE56FF4F91838083B1
:1025F00022C08E0100561F4FFE01EF55FF4F608134
:102600007181828193810E94C800DC01CB01F801B5
:102610008083DE01AF56BF4FFE01E056FF4F808141
:102620008C93FE01EF56FF4F80818A95F1F7FE01F2
:10263000EF56FF4F808381E060E041E00E94C635A5
:10264000FE01E357FF4F80E090E0A0E8BFE3808306
:102650009183A283B3838E0107571F4FFE01E35777
:10266000FF4F60817181828193812BEA3AEA4AEAC5
:1026700050E40E949E02DC01CB01F801808391832B
:10268000A283B383FE01E757FF4F6081718182818E
:10269000938120E030E040E85FE30E94A4048823B7
:1026A00034F4FE01E857FF4F81E08083E0C0FE0173
:1026B000E757FF4F608171818281938120E030E094
:1026C0004FE753E40E94440418160CF0C0C0FE010A
:1026D000E357FF4F608171818281938120E030E078
:1026E0004AE754E40E949803DC01CB01FE01EC5759
:1026F000FF4F80839183A283B3838E0100581F4FC5
:10270000FE01EC57FF4F608171818281938120E04F
:1027100030E04AE755E40E949E02DC01CB01F8015B
:1027200080839183A283B383FE01E058FF4F6081D1
:1027300071818281938120E030E040E85FE30E9474
:10274000A404882344F4FE01E258FF4F81E090E0A6
:102750009183808364C0FE01E058FF4F60817181E6
:102760008281938120E03FEF4FE757E40E944404C9
:1027700018160CF043C0FE01EC57FF4F60817181C9
:102780008281938120E030E040E251E40E949E0289
:10279000DC01CB018E0102581F4FBC01CD010E940C
:1027A000C800DC01CB01F801918380831FC0FE01CA
:1027B000E458FF4F80E991E091838083FE01E45863
:1027C000FF4F808191810197F1F7FE01E458FF4F9F
:1027D00091838083DE01A258BF4FFE01E258FF4F74
:1027E00080819181019711969C938E93FE01E2580E
:1027F000FF4F808191810097D1F64BC08E01025826
:102800001F4FFE01E058FF4F6081718182819381EB
:102810000E94C800DC01CB01F80191838083DE01B6
:10282000A658BF4FFE01E258FF4F8081918111965B
:102830009C938E93FE01E658FF4F80819181019712
:10284000F1F7FE01E658FF4F9183808322C08E018D
:1028500008571F4FFE01E757FF4F6081718182814A
:1028600093810E94C800DC01CB01F8018083DE0166
:10287000A758BF4FFE01E857FF4F80818C93FE01A0
:10288000E758FF4F80818A95F1F7FE01E758FF4F27
:102890008083FE01E755FF4F8081982F907F80E075
:1028A000692F0E943637FE01EB58FF4F80E090E021
:1028B000A0E8BFE380839183A283B3838E010F5886
:1028C0001F4FFE01EB58FF4F608171818281938120
:1028D0002BEA3AEA4AEA50E40E949E02DC01CB016C
:1028E000F80180839183A283B383FE01EF58FF4FE9
:1028F000608171818281938120E030E040E85FE374
:102900000E94A404882334F4FE01E059FF4F81E0C3
:102910008083E0C0FE01EF58FF4F608171818281AA
:10292000938120E030E04FE753E40E9444041816FE
:102930000CF0C0C0FE01EB58FF4F608171818281B5
:10294000938120E030E04AE754E40E949803DC01E0
:10295000CB01FE01E459FF4F80839183A283B383AF
:102960008E0108591F4FFE01E459FF4F60817181AC
:102970008281938120E030E04AE755E40E949E0284
:10298000DC01CB01F80180839183A283B383FE0134
:10299000E859FF4F608171818281938120E030E0AE
:1029A00040E85FE30E94A404882344F4FE01EA594E
:1029B000FF4F81E090E09183808364C0FE01E8597D
:1029C000FF4F608171818281938120E03FEF4FE76B
:1029D00057E40E94440418160CF043C0FE01E45969
:1029E000FF4F608171818281938120E030E040E27D
:1029F00051E40E949E02DC01CB018E010A591F4F57
:102A0000BC01CD010E94C800DC01CB01F80191831B
:102A100080831FC0FE01EC59FF4F80E991E0918354
:102A20008083FE01EC59FF4F808191810197F1F77E
:102A3000FE01EC59FF4F91838083DE01AA59BF4FFD
:102A4000FE01EA59FF4F80819181019711969C9375
:102A50008E93FE01EA59FF4F808191810097D1F654
:102A60004BC08E010A591F4FFE01E859FF4F60818C
:102A70007181828193810E94C800DC01CB01F80141
:102A800091838083DE01AE59BF4FFE01EA59FF4FAB
:102A90008081918111969C938E93FE01EE59FF4F98
:102AA000808191810197F1F7FE01EE59FF4F9183EB
:102AB000808322C08E0100591F4FFE01EF58FF4F47
:102AC00060817181828193810E94C800DC01CB0109
:102AD000F8018083DE01AF59BF4FFE01E059FF4F7F
:102AE00080818C93FE01EF59FF4F80818A95F1F729
:102AF000FE01EF59FF4F808381E060E040E00E94DB
:102B0000C635FE01E35AFF4F80E090E0A0E8BFE346
:102B100080839183A283B3838E01075A1F4FFE01E6
:102B2000E35AFF4F60817181828193812BEA3AEAF7
:102B30004AEA50E40E949E02DC01CB01F801808346
:102B40009183A283B383FE01E75AFF4F60817181B5
:102B50008281938120E030E040E85FE30E94A4049A
:102B6000882334F4FE01E85AFF4F81E08083E0C0FF
:102B7000FE01E75AFF4F608171818281938120E0DD
:102B800030E04FE753E40E94440418160CF0C0C034
:102B9000FE01E35AFF4F608171818281938120E0C1
:102BA00030E04AE754E40E949803DC01CB01FE01C7
:102BB000EC5AFF4F80839183A283B3838E01005B25
:102BC0001F4FFE01EC5AFF4F60817181828193811A
:102BD00020E030E04AE755E40E949E02DC01CB0190
:102BE000F80180839183A283B383FE01E05BFF4FF2
:102BF000608171818281938120E030E040E85FE371
:102C00000E94A404882344F4FE01E25BFF4F81E0AC
:102C100090E09183808364C0FE01E05BFF4F6081A0
:102C200071818281938120E03FEF4FE757E40E945A
:102C3000440418160CF043C0FE01EC5AFF4F6081AB
:102C400071818281938120E030E040E251E40E9472
:102C50009E02DC01CB018E01025B1F4FBC01CD0146
:102C60000E94C800DC01CB01F801918380831FC062
:102C7000FE01E45BFF4F80E991E091838083FE01D8
:102C8000E45BFF4F808191810197F1F7FE01E45BE6
:102C9000FF4F91838083DE01A25BBF4FFE01E25BA9
:102CA000FF4F80819181019711969C938E93FE0135
:102CB000E25BFF4F808191810097D1F64BC08E017E
:102CC000025B1F4FFE01E05BFF4F608171818281DB
:102CD00093810E94C800DC01CB01F80191838083BD
:102CE000DE01A65BBF4FFE01E25BFF4F8081918159
:102CF00011969C938E93FE01E65BFF4F808191813C
:102D00000197F1F7FE01E65BFF4F9183808322C0BC
:102D10008E01085A1F4FFE01E75AFF4F60817181F3
:102D2000828193810E94C800DC01CB01F80180837D
:102D3000DE01A75BBF4FFE01E85AFF4F80818C93F5
:102D4000FE01E75BFF4F80818A95F1F7FE01E75BAB
:102D5000FF4F808381E060E041E00E94C635FE01C4
:102D6000EB5BFF4F80E090E0A0E8BFE380839183BE
:102D7000A283B3838E010F5B1F4FFE01EB5BFF4FFE
:102D800060817181828193812BEA3AEA4AEA50E4B8
:102D90000E949E02DC01CB01F80180839183A28313
:102DA000B383FE01EF5BFF4F60817181828193816C
:102DB00020E030E040E85FE30E94A404882334F47C
:102DC00081E0FE01E05CFF4F80839DC0FE01EF5B70
:102DD000FF4F608171818281938120E030E04FE775
:102DE00053E40E94440418160CF07EC0FE01EB5B15
:102DF000FF4F608171818281938120E030E04AE75A
:102E000054E40E949803DC01CB018CAF9DAFAEAFC0
:102E1000BFAF6CAD7DAD8EAD9FAD20E030E04AE739
:102E200055E40E949E02DC01CB0188AF99AFAAAFA6
:102E3000BBAF68AD79AD8AAD9BAD20E030E040E836
:102E40005FE30E94A40488232CF481E090E09FAB10
:102E50008EAB3FC068AD79AD8AAD9BAD20E03FEF52
:102E60004FE757E40E94440418164CF56CAD7DAD55
:102E70008EAD9FAD20E030E040E251E40E949E0222
:102E8000DC01CB01BC01CD010E94C800DC01CB01FB
:102E90009FAB8EAB0FC080E991E09DAB8CAB8CA952
:102EA0009DA90197F1F79DAB8CAB8EA99FA90197C6
:102EB0009FAB8EAB8EA99FA9009769F72DC068AD17
:102EC00079AD8AAD9BAD0E94C800DC01CB019FAB00
:102ED0008EAB8EA99FA99BAB8AAB8AA99BA90197B0
:102EE000F1F79BAB8AAB18C0FE01EF5BFF4F60812F
:102EF0007181828193810E94C800DC01CB01FE01B7
:102F0000E05CFF4F8083FE01E05CFF4F808189AB76
:102F100089A98A95F1F789ABFE01E755FF4F8081BA
:102F2000982F9295907F80E0692F0E94363780E03D
:102F300090E0A0E8BFE38DA79EA7AFA7B8AB6DA5B3
:102F40007EA58FA598A92BEA3AEA4AEA50E40E94A6
:102F50009E02DC01CB0189A79AA7ABA7BCA769A5F4
:102F60007AA58BA59CA520E030E040E85FE30E94B5
:102F7000A40488231CF481E088A791C069A57AA5E0
:102F80008BA59CA520E030E04FE753E40E94440469
:102F900018160CF07BC06DA57EA58FA598A920E022
:102FA00030E04AE754E40E949803DC01CB018CA393
:102FB0009DA3AEA3BFA36CA17DA18EA19FA120E084
:102FC00030E04AE755E40E949E02DC01CB0188A371
:102FD00099A3AAA3BBA368A179A18AA19BA120E080
:102FE00030E040E85FE30E94A40488232CF481E0F1
:102FF00090E09F8F8E8F3FC068A179A18AA19BA18D
:1030000020E03FEF4FE757E40E94440418164CF5C8
:103010006CA17DA18EA19FA120E030E040E251E4AF
:103020000E949E02DC01CB01BC01CD010E94C800C0
:10303000DC01CB019F8F8E8F0FC080E991E09D8FC7
:103040008C8F8C8D9D8D0197F1F79D8F8C8F8E8D40
:103050009F8D01979F8F8E8F8E8D9F8D009769F723
:1030600024C068A179A18AA19BA10E94C800DC01AB
:10307000CB019F8F8E8F8E8D9F8D9B8F8A8F8A8D98
:103080009B8D0197F1F79B8F8A8F0FC069A57AA559
:103090008BA59CA50E94C800DC01CB0188A788A550
:1030A000898F898D8A95F1F7898F81E060E040E012
:1030B0000E94C63580E090E0A0E8BFE38D8B9E8B38
:1030C000AF8BB88F6D897E898F89988D2BEA3AEA0C
:1030D0004AEA50E40E949E02DC01CB01898B9A8B64
:1030E000AB8BBC8B69897A898B899C8920E030E025
:1030F00040E85FE30E94A40488231CF481E0888BED
:1031000091C069897A898B899C8920E030E04FE7FA
:1031100053E40E94440418160CF07BC06D897E892C
:103120008F89988D20E030E04AE754E40E949803AC
:10313000DC01CB018C879D87AE87BF876C857D8541
:103140008E859F8520E030E04AE755E40E949E028C
:10315000DC01CB0188879987AA87BB876885798539
:103160008A859B8520E030E040E85FE30E94A4046C
:1031700088232CF481E090E09F838E833FC0688594
:1031800079858A859B8520E03FEF4FE757E40E94D1
:10319000440418164CF56C857D858E859F8520E04E
:1031A00030E040E251E40E949E02DC01CB01BC0110
:1031B000CD010E94C800DC01CB019F838E830FC02C
:1031C00080E991E09D838C838C819D810197F1F74B
:1031D0009D838C838E819F8101979F838E838E81B7
:1031E0009F81009769F724C0688579858A859B85CA
:1031F0000E94C800DC01CB019F838E838E819F815A
:103200009B838A838A819B810197F1F79B838A83C1
:103210000FC069897A898B899C890E94C800DC016A
:10322000CB01888B8889898389818A95F1F7898385
:10323000C755DF4F0FB6F894DEBF0FBECDBFCF919D
:10324000DF911F910F910895DF93CF9300D000D0AD
:103250000F92CDB7DEB78A836B8319828A81282FBC
:1032600030E03D832C838C819D8181309105C9F0B4
:103270002C813D81223031052CF48C819D81009779
:1032800061F01AC02C813D812230310571F08C81B2
:103290009D818330910569F00FC08B81806889839F
:1032A0000BC08B81806C898307C08B818469898383
:1032B00003C08B81846D898389810E94D7110F900F
:1032C0000F900F900F900F90CF91DF9108950F9373
:1032D0001F93DF93CF93CDB7DEB7C95AD0400FB657
:1032E000F894DEBF0FBECDBFFE01E755FF4F8083D0
:1032F00081E061E041E00E94C63581E062E040E0AB
:103300000E94C635FE01EB55FF4F80E090E0A0E83B
:10331000BFE380839183A283B3838E010F551F4F38
:10332000FE01EB55FF4F60817181828193812BEA11
:103330003AEA4AEA50E40E949E02DC01CB01F8011D
:1033400080839183A283B383FE01EF55FF4F608199
:1033500071818281938120E030E040E85FE30E9448
:10336000A404882334F4FE01E056FF4F81E08083FB
:10337000E0C0FE01EF55FF4F608171818281938132
:1033800020E030E04FE753E40E94440418160CF0AC
:10339000C0C0FE01EB55FF4F608171818281938136
:1033A00020E030E04AE754E40E949803DC01CB01BE
:1033B000FE01E456FF4F80839183A283B3838E0185
:1033C00008561F4FFE01E456FF4F608171818281D4
:1033D000938120E030E04AE755E40E949E02DC0140
:1033E000CB01F80180839183A283B383FE01E85669
:1033F000FF4F608171818281938120E030E040E85D
:103400005FE30E94A404882344F4FE01EA56FF4FC0
:1034100081E090E09183808364C0FE01E856FF4F15
:10342000608171818281938120E03FEF4FE757E413
:103430000E94440418160CF043C0FE01E456FF4FEE
:10344000608171818281938120E030E040E251E42B
:103450000E949E02DC01CB018E010A561F4FBC0167
:10346000CD010E94C800DC01CB01F801918380836B
:103470001FC0FE01EC56FF4F80E991E091838083ED
:10348000FE01EC56FF4F808191810197F1F7FE011B
:10349000EC56FF4F91838083DE01AA56BF4FFE0199
:1034A000EA56FF4F80819181019711969C938E93EC
:1034B000FE01EA56FF4F808191810097D1F64BC003
:1034C0008E010A561F4FFE01E856FF4F6081718141
:1034D000828193810E94C800DC01CB01F8019183B5
:1034E0008083DE01AE56BF4FFE01EA56FF4F80815A
:1034F000918111969C938E93FE01EE56FF4F808131
:1035000091810197F1F7FE01EE56FF4F9183808381
:1035100022C08E0100561F4FFE01EF55FF4F608104
:103520007181828193810E94C800DC01CB01F80186
:103530008083DE01AF56BF4FFE01E056FF4F808112
:103540008C93FE01EF56FF4F80818A95F1F7FE01C3
:10355000EF56FF4F808381E060E041E00E94C63576
:10356000FE01E357FF4F80E090E0A0E8BFE38083D7
:103570009183A283B3838E0107571F4FFE01E35748
:10358000FF4F60817181828193812BEA3AEA4AEA96
:1035900050E40E949E02DC01CB01F80180839183FC
:1035A000A283B383FE01E757FF4F6081718182815F
:1035B000938120E030E040E85FE30E94A404882388
:1035C00034F4FE01E857FF4F81E08083E0C0FE0144
:1035D000E757FF4F608171818281938120E030E065
:1035E0004FE753E40E94440418160CF0C0C0FE01DB
:1035F000E357FF4F608171818281938120E030E049
:103600004AE754E40E949803DC01CB01FE01EC5729
:10361000FF4F80839183A283B3838E0100581F4F95
:10362000FE01EC57FF4F608171818281938120E020
:1036300030E04AE755E40E949E02DC01CB01F8012C
:1036400080839183A283B383FE01E058FF4F6081A2
:1036500071818281938120E030E040E85FE30E9445
:10366000A404882344F4FE01E258FF4F81E090E077
:103670009183808364C0FE01E058FF4F60817181B7
:103680008281938120E03FEF4FE757E40E9444049A
:1036900018160CF043C0FE01EC57FF4F608171819A
:1036A0008281938120E030E040E251E40E949E025A
:1036B000DC01CB018E0102581F4FBC01CD010E94DD
:1036C000C800DC01CB01F801918380831FC0FE019B
:1036D000E458FF4F80E991E091838083FE01E45834
:1036E000FF4F808191810197F1F7FE01E458FF4F70
:1036F00091838083DE01A258BF4FFE01E258FF4F45
:1037000080819181019711969C938E93FE01E258DE
:10371000FF4F808191810097D1F64BC08E010258F6
:103720001F4FFE01E058FF4F6081718182819381BC
:103730000E94C800DC01CB01F80191838083DE0187
:10374000A658BF4FFE01E258FF4F8081918111962C
:103750009C938E93FE01E658FF4F808191810197E3
:10376000F1F7FE01E658FF4F9183808322C08E015E
:1037700008571F4FFE01E757FF4F6081718182811B
:1037800093810E94C800DC01CB01F8018083DE0137
:10379000A758BF4FFE01E857FF4F80818C93FE0171
:1037A000E758FF4F80818A95F1F7FE01E758FF4FF8
:1037B0008083FE01E755FF4F8081982F907F80E046
:1037C000692F0E943637FE01EB58FF4F80E090E0F2
:1037D000A0E8BFE380839183A283B3838E010F5857
:1037E0001F4FFE01EB58FF4F6081718182819381F1
:1037F0002BEA3AEA4AEA50E40E949E02DC01CB013D
:10380000F80180839183A283B383FE01EF58FF4FB9
:10381000608171818281938120E030E040E85FE344
:103820000E94A404882334F4FE01E059FF4F81E094
:103830008083E0C0FE01EF58FF4F6081718182817B
:10384000938120E030E04FE753E40E9444041816CF
:103850000CF0C0C0FE01EB58FF4F60817181828186
:10386000938120E030E04AE754E40E949803DC01B1
:10387000CB01FE01E459FF4F80839183A283B38380
:103880008E0108591F4FFE01E459FF4F608171817D
:103890008281938120E030E04AE755E40E949E0255
:1038A000DC01CB01F80180839183A283B383FE0105
:1038B000E859FF4F608171818281938120E030E07F
:1038C00040E85FE30E94A404882344F4FE01EA591F
:1038D000FF4F81E090E09183808364C0FE01E8594E
:1038E000FF4F608171818281938120E03FEF4FE73C
:1038F00057E40E94440418160CF043C0FE01E4593A
:10390000FF4F608171818281938120E030E040E24D
:1039100051E40E949E02DC01CB018E010A591F4F27
:10392000BC01CD010E94C800DC01CB01F8019183EC
:1039300080831FC0FE01EC59FF4F80E991E0918325
:103940008083FE01EC59FF4F808191810197F1F74F
:10395000FE01EC59FF4F91838083DE01AA59BF4FCE
:10396000FE01EA59FF4F80819181019711969C9346
:103970008E93FE01EA59FF4F808191810097D1F625
:103980004BC08E010A591F4FFE01E859FF4F60815D
:103990007181828193810E94C800DC01CB01F80112
:1039A00091838083DE01AE59BF4FFE01EA59FF4F7C
:1039B0008081918111969C938E93FE01EE59FF4F69
:1039C000808191810197F1F7FE01EE59FF4F9183BC
:1039D000808322C08E0100591F4FFE01EF58FF4F18
:1039E00060817181828193810E94C800DC01CB01DA
:1039F000F8018083DE01AF59BF4FFE01E059FF4F50
:103A000080818C93FE01EF59FF4F80818A95F1F7F9
:103A1000FE01EF59FF4F808381E060E040E00E94AB
:103A2000C635FE01E35AFF4F80E090E0A0E8BFE317
:103A300080839183A283B3838E01075A1F4FFE01B7
:103A4000E35AFF4F60817181828193812BEA3AEAC8
:103A50004AEA50E40E949E02DC01CB01F801808317
:103A60009183A283B383FE01E75AFF4F6081718186
:103A70008281938120E030E040E85FE30E94A4046B
:103A8000882334F4FE01E85AFF4F81E08083E0C0D0
:103A9000FE01E75AFF4F608171818281938120E0AE
:103AA00030E04FE753E40E94440418160CF0C0C005
:103AB000FE01E35AFF4F608171818281938120E092
:103AC00030E04AE754E40E949803DC01CB01FE0198
:103AD000EC5AFF4F80839183A283B3838E01005BF6
:103AE0001F4FFE01EC5AFF4F6081718182819381EB
:103AF00020E030E04AE755E40E949E02DC01CB0161
:103B0000F80180839183A283B383FE01E05BFF4FC2
:103B1000608171818281938120E030E040E85FE341
:103B20000E94A404882344F4FE01E25BFF4F81E07D
:103B300090E09183808364C0FE01E05BFF4F608171
:103B400071818281938120E03FEF4FE757E40E942B
:103B5000440418160CF043C0FE01EC5AFF4F60817C
:103B600071818281938120E030E040E251E40E9443
:103B70009E02DC01CB018E01025B1F4FBC01CD0117
:103B80000E94C800DC01CB01F801918380831FC033
:103B9000FE01E45BFF4F80E991E091838083FE01A9
:103BA000E45BFF4F808191810197F1F7FE01E45BB7
:103BB000FF4F91838083DE01A25BBF4FFE01E25B7A
:103BC000FF4F80819181019711969C938E93FE0106
:103BD000E25BFF4F808191810097D1F64BC08E014F
:103BE000025B1F4FFE01E05BFF4F608171818281AC
:103BF00093810E94C800DC01CB01F801918380838E
:103C0000DE01A65BBF4FFE01E25BFF4F8081918129
:103C100011969C938E93FE01E65BFF4F808191810C
:103C20000197F1F7FE01E65BFF4F9183808322C08D
:103C30008E01085A1F4FFE01E75AFF4F60817181C4
:103C4000828193810E94C800DC01CB01F80180834E
:103C5000DE01A75BBF4FFE01E85AFF4F80818C93C6
:103C6000FE01E75BFF4F80818A95F1F7FE01E75B7C
:103C7000FF4F808381E060E041E00E94C635FE0195
:103C8000EB5BFF4F80E090E0A0E8BFE3808391838F
:103C9000A283B3838E010F5B1F4FFE01EB5BFF4FCF
:103CA00060817181828193812BEA3AEA4AEA50E489
:103CB0000E949E02DC01CB01F80180839183A283E4
:103CC000B383FE01EF5BFF4F60817181828193813D
:103CD00020E030E040E85FE30E94A404882334F44D
:103CE00081E0FE01E05CFF4F80839DC0FE01EF5B41
:103CF000FF4F608171818281938120E030E04FE746
:103D000053E40E94440418160CF07EC0FE01EB5BE5
:103D1000FF4F608171818281938120E030E04AE72A
:103D200054E40E949803DC01CB018CAF9DAFAEAF91
:103D3000BFAF6CAD7DAD8EAD9FAD20E030E04AE70A
:103D400055E40E949E02DC01CB0188AF99AFAAAF77
:103D5000BBAF68AD79AD8AAD9BAD20E030E040E807
:103D60005FE30E94A40488232CF481E090E09FABE1
:103D70008EAB3FC068AD79AD8AAD9BAD20E03FEF23
:103D80004FE757E40E94440418164CF56CAD7DAD26
:103D90008EAD9FAD20E030E040E251E40E949E02F3
:103DA000DC01CB01BC01CD010E94C800DC01CB01CC
:103DB0009FAB8EAB0FC080E991E09DAB8CAB8CA923
:103DC0009DA90197F1F79DAB8CAB8EA99FA9019797
:103DD0009FAB8EAB8EA99FA9009769F72DC068ADE8
:103DE00079AD8AAD9BAD0E94C800DC01CB019FABD1
:103DF0008EAB8EA99FA99BAB8AAB8AA99BA9019781
:103E0000F1F79BAB8AAB18C0FE01EF5BFF4F6081FF
:103E10007181828193810E94C800DC01CB01FE0187
:103E2000E05CFF4F8083FE01E05CFF4F808189AB47
:103E300089A98A95F1F789ABFE01E755FF4F80818B
:103E4000982F9295907F80E0692F0E94363780E00E
:103E500090E0A0E8BFE38DA79EA7AFA7B8AB6DA584
:103E60007EA58FA598A92BEA3AEA4AEA50E40E9477
:103E70009E02DC01CB0189A79AA7ABA7BCA769A5C5
:103E80007AA58BA59CA520E030E040E85FE30E9486
:103E9000A40488231CF481E088A791C069A57AA5B1
:103EA0008BA59CA520E030E04FE753E40E9444043A
:103EB00018160CF07BC06DA57EA58FA598A920E0F3
:103EC00030E04AE754E40E949803DC01CB018CA364
:103ED0009DA3AEA3BFA36CA17DA18EA19FA120E055
:103EE00030E04AE755E40E949E02DC01CB0188A342
:103EF00099A3AAA3BBA368A179A18AA19BA120E051
:103F000030E040E85FE30E94A40488232CF481E0C1
:103F100090E09F8F8E8F3FC068A179A18AA19BA15D
:103F200020E03FEF4FE757E40E94440418164CF599
:103F30006CA17DA18EA19FA120E030E040E251E480
:103F40000E949E02DC01CB01BC01CD010E94C80091
:103F5000DC01CB019F8F8E8F0FC080E991E09D8F98
:103F60008C8F8C8D9D8D0197F1F79D8F8C8F8E8D11
:103F70009F8D01979F8F8E8F8E8D9F8D009769F7F4
:103F800024C068A179A18AA19BA10E94C800DC017C
:103F9000CB019F8F8E8F8E8D9F8D9B8F8A8F8A8D69
:103FA0009B8D0197F1F79B8F8A8F0FC069A57AA52A
:103FB0008BA59CA50E94C800DC01CB0188A788A521
:103FC000898F898D8A95F1F7898F81E060E040E0E3
:103FD0000E94C63580E090E0A0E8BFE38D8B9E8B09
:103FE000AF8BB88F6D897E898F89988D2BEA3AEADD
:103FF0004AEA50E40E949E02DC01CB01898B9A8B35
:10400000AB8BBC8B69897A898B899C8920E030E0F5
:1040100040E85FE30E94A40488231CF481E0888BBD
:1040200091C069897A898B899C8920E030E04FE7CB
:1040300053E40E94440418160CF07BC06D897E89FD
:104040008F89988D20E030E04AE754E40E9498037D
:10405000DC01CB018C879D87AE87BF876C857D8512
:104060008E859F8520E030E04AE755E40E949E025D
:10407000DC01CB0188879987AA87BB87688579850A
:104080008A859B8520E030E040E85FE30E94A4043D
:1040900088232CF481E090E09F838E833FC0688565
:1040A00079858A859B8520E03FEF4FE757E40E94A2
:1040B000440418164CF56C857D858E859F8520E01F
:1040C00030E040E251E40E949E02DC01CB01BC01E1
:1040D000CD010E94C800DC01CB019F838E830FC0FD
:1040E00080E991E09D838C838C819D810197F1F71C
:1040F0009D838C838E819F8101979F838E838E8188
:104100009F81009769F724C0688579858A859B859A
:104110000E94C800DC01CB019F838E838E819F812A
:104120009B838A838A819B810197F1F79B838A8392
:104130000FC069897A898B899C890E94C800DC013B
:10414000CB01888B8889898389818A95F1F7898356
:10415000C755DF4F0FB6F894DEBF0FBECDBFCF916E
:10416000DF911F910F910895DF93CF9300D0CDB7CA
:10417000DEB79A8389830AC0E981FA8180810E942F
:10418000671989819A8101969A838983E981FA81E5
:104190008081882389F70F900F90CF91DF91089548
:1041A000DF93CF93CDB7DEB72A970FB6F894DEBF73
:1041B0000FBECDBF9A87898789859A85992354F444
:1041C0008DE20E94671989859A85909581959F4F08
:1041D0009A8789871B821C821D821E821F821886F5
:1041E000CE0104969A83898389859A852AE030E0F6
:1041F000B9010E9486388B838B81805DE981FA81C9
:10420000808389859A852AE030E0B9010E9486384A
:10421000CB019A87898789819A8101969A838983BC
:1042200089859A8518161906FCF289819A81019769
:104230009A838983E981FA8180810E9467199E01AE
:104240002C5F3F4F89819A818217930771F72A96D5
:104250000FB6F894DEBF0FBECDBFCF91DF910895AA
:10426000EF92FF920F931F93DF93CF93CDB7DEB7FB
:104270002C970FB6F894DEBF0FBECDBF69877A8743
:104280008B879C8769857A858B859C850E94C80071
:10429000DC01CB0198878F838F8198850E94D02085
:1042A0008EE20E9467198F819885CC01A0E0B0E072
:1042B000BC01CD010E9486059B01AC0169857A8510
:1042C0008B859C850E944002DC01CB018B839C8303
:1042D000AD83BE831A8219823FC06B817C818D8140
:1042E0009E8120E030E040E251E40E949E02DC0129
:1042F000CB01BC01CD010E94C800DC01CB018A8347
:104300008A81805D0E9467196B817C818D819E818D
:1043100020E030E040E251E40E949E02DC01CB014B
:104320007C018D018A81882F90E0AA2797FDA095B6
:10433000BA2FBC01CD010E94D4049B01AC01C8017D
:10434000B7010E944002DC01CB018B839C83AD83CB
:10435000BE8389818F5F89838981833008F4BDCFD3
:104360002C960FB6F894DEBF0FBECDBFCF91DF9174
:104370001F910F91FF90EF900895DF93CF9300D09E
:1043800000D0CDB7DEB79B838A836C838C81882F66
:1043900090E00896880F991F880F991F880F991F22
:1043A0000E94D71119820EC08981282F30E08A819E
:1043B0009B81FC01E20FF31F80810E9467198981B4
:1043C0008F5F89838981883078F30F900F900F90E9
:1043D0000F90CF91DF910895DF93CF9300D0CDB7A9
:1043E000DEB79A838983E981FA818081882F90E002
:1043F000009721F489819A810E94A8220F900F9042
:10440000CF91DF910895DF93CF9300D0CDB7DEB782
:1044100089836A83AEE4B0E0EEE4F0E080818F7BD4
:104420008C938981882F90E00097A1F4AEE4B0E0EE
:10443000EEE4F0E08081282F8A81882F90E000242C
:10444000969587950794969587950794982F802D34
:10445000822B8C930F900F90CF91DF910895DF9373
:10446000CF930F92CDB7DEB789838981882F90E0F3
:10447000009721F4ECE4F0E0118210820F90CF91CC
:10448000DF910895DF93CF9300D00F92CDB7DEB7C1
:104490008B831A8219828B81882F90E0009731F4E8
:1044A000E6E4F0E0808191819A83898389819A8111
:1044B0000F900F900F90CF91DF910895DF93CF93DE
:1044C00000D0CDB7DEB789838981882F90E000972F
:1044D000C1F4E8E5F0E08081829586958770882FA9
:1044E00090E081709070882351F0A8E5B0E0E8E595
:1044F000F0E0808180628C9381E08A8303C01A821D
:1045000001C01A828A810F900F90CF91DF91089598
:10451000DF93CF9300D000D00F92CDB7DEB7898361
:104520007B836A835D834C838981882F90E0009729
:1045300039F48A819B812C813D81B9010E94FE2240
:104540000F900F900F900F900F90CF91DF910895E3
:10455000DF93CF9300D0CDB7DEB79A838983A1E3F1
:10456000B0E0E1E3F0E080818F7B8C93EFE4F0E05A
:104570001082EEE4F0E01082AEE4B0E0EEE4F0E0B1
:104580009081E981FA818181892B8C93AEE4B0E03E
:10459000EEE4F0E08081282FE981FA818281882F82
:1045A00090E00024969587950794969587950794B3
:1045B000982F802D822B8C93A9E5B0E0E9E5F0E0FF
:1045C0008081282FE981FA818381882F90E0880FEC
:1045D000991F82959295907F9827807F9827822BAC
:1045E0008C93ECE4F0E011821082E6E4F0E01182BA
:1045F00010820F900F90CF91DF910895EF92FF926C
:104600000F931F93DF93CF93CDB7DEB72C970FB6E1
:10461000F894DEBF0FBECDBF9A8789877C876B87F2
:10462000A8E5B0E0E8E5F0E0808180628C9380E06E
:1046300061E00E94032280E00E945E228823D9F379
:104640001D821E821F82188680E060E00E94032285
:1046500080E00E942F22A8E5B0E0E8E5F0E080814C
:1046600080628C931EC0E8E5F0E080818695869597
:10467000882F90E081709070882399F0A8E5B0E0D1
:10468000E8E5F0E0808184608C938D819E81AF812C
:10469000B88580509040AF4FBF4F8D839E83AF83CE
:1046A000B88780E00E945E228823E9F280E00E94C1
:1046B00042229C0140E050E08D819E81AF81B8850F
:1046C000820F931FA41FB51F8D839E83AF83B8876E
:1046D00019821A821B821C8280E061E00E94032200
:1046E00080E00E942F22A8E5B0E0E8E5F0E08081BC
:1046F00080628C931EC0E8E5F0E080818695869507
:10470000882F90E081709070882399F0A8E5B0E040
:10471000E8E5F0E0808184608C9389819A81AB81A7
:10472000BC8180509040AF4FBF4F89839A83AB8349
:10473000BC8380E00E945E228823E9F280E00E9430
:104740004222CC01A0E0B0E089839A83AB83BC8392
:1047500089859A85CC01A0E0B0E02D813E814F8112
:104760005885BC01CD010E946738DC01CB01BC013A
:10477000CD010E948605DC01CB01BC01CD0120E00A
:1047800030E04AE754E40E949E02DC01CB01BC0108
:10479000CD0120E034E244E75BE40E949803DC01B1
:1047A000CB01EB85FC8580839183A283B3832D812C
:1047B0003E814F81588589819A81AB81BC81790185
:1047C0008A01E80EF91E0A1F1B1F89859A859C0124
:1047D00040E050E0C801B7010E946738DC01CB011E
:1047E000BC01CD010E948605DC01CB01BC01CD01DD
:1047F00020E030E04AE754E40E949E02DC01CB0155
:10480000BC01CD0120E034E244E75BE40E94980360
:10481000DC01CB01EB85FC8584839583A683B7837C
:104820002C960FB6F894DEBF0FBECDBFCF91DF91AF
:104830001F910F91FF90EF900895DF93CF9300D0D9
:1048400000D00F92CDB7DEB79B838A8319822BC02D
:10485000EA81FB818081282F30E03D832C838C818D
:104860009D818130910571F02C813D81223031058F
:1048700071F08C819D81009771F48A819B810E94E7
:104880005E2409C08A819B810E94EF2404C08A8132
:104890009B810E948E2589818F5F89838A819B817C
:1048A00004969B838A838981882391F20F900F90CD
:1048B0000F900F900F90CF91DF910895DF93CF93DA
:1048C00000D000D000D0CDB7DEB79A838983E3E56E
:1048D000F0E01082A3E5B0E0E3E5F0E09081E9814B
:1048E000FA818181892B8C93E981FA818281282F39
:1048F00030E03E832D838D819E8184309105F1F0DF
:104900002D813E81253031053CF48D819E810096BC
:104910008330910550F507C08D819E8106978430C4
:10492000910518F517C0A3E5B0E0E3E5F0E090814C
:10493000E981FA818281892B8C9317C0A3E5B0E0CD
:10494000E3E5F0E09081E981FA8182818150892B51
:104950008C930BC0A3E5B0E0E3E5F0E09081E98142
:10496000FA8182818250892B8C93A9E5B0E0E9E538
:10497000F0E080818C7F8C93E981FA818181282FFE
:1049800030E03C832B838B819C81009731F02B811D
:104990003C812130310559F019C0A9E5B0E0E9E5C5
:1049A000F0E09081E981FA818381892B8C93A9E5DC
:1049B000B0E0E9E5F0E08081282FE981FA81838188
:1049C000882F90E0880F991F822B8C9326960FB624
:1049D000F894DEBF0FBECDBFCF91DF910895DF9376
:1049E000CF9300D000D000D0CDB7DEB79A838983B3
:1049F000EFE4F0E01082EEE4F0E01082AEE4B0E02C
:104A0000EEE4F0E09081E981FA818181892B8C9339
:104A1000E981FA818281282F30E03E832D838D81C8
:104A20009E8184309105F1F02D813E812530310544
:104A30003CF48D819E8100968330910550F507C02E
:104A40008D819E8106978430910518F517C0AEE4DC
:104A5000B0E0EEE4F0E09081E981FA818281892B77
:104A60008C9317C0AEE4B0E0EEE4F0E09081E98111
:104A7000FA8182818150892B8C930BC0AEE4B0E027
:104A8000EEE4F0E09081E981FA8182818250892B05
:104A90008C93A9E5B0E0E9E5F0E08081837E8C931A
:104AA000E981FA818181282F30E03C832B838B813F
:104AB0009C81009731F02B813C812130310591F0B0
:104AC00024C0A9E5B0E0E9E5F0E08081282FE98184
:104AD000FA818381882F90E0880F991F880F991F92
:104AE000822B8C93A9E5B0E0E9E5F0E08081282FE6
:104AF000E981FA818381882F90E082959295907F59
:104B00009827807F9827822B8C9326960FB6F8944F
:104B1000DEBF0FBECDBFCF91DF910895DF93CF935E
:104B200000D000D0CDB7DEB79A838983E5E4F0E00A
:104B30001082A5E4B0E0E5E4F0E09081E981FA813B
:104B40008181892B8C93E981FA818281883079F087
:104B5000E981FA818281893051F0A5E4B0E0E5E491
:104B6000F0E09081E981FA818281892B8C93A9E51B
:104B7000B0E0E9E5F0E080818F738C93E981FA8100
:104B80008181282F30E03C832B838B819C8100978F
:104B900031F02B813C8121303105B9F028C0A9E5E5
:104BA000B0E0E9E5F0E08081282FE981FA81838196
:104BB000882F90E000249695879507949695879581
:104BC0000794982F802D822B8C93A9E5B0E0E9E51E
:104BD000F0E08081282FE981FA818381882F90E09D
:104BE0009695982F882797958795822B8C930F9071
:104BF0000F900F900F90CF91DF910895DF93CF9397
:104C0000CDB7DEB760970FB6F894DEBF0FBECDBF4D
:104C10009C838B837E836D831A821982EB81FC8156
:104C20008281282F30E0388B2F878F8598898430B8
:104C3000910509F4A2C02F8538892530310594F4F7
:104C40008F8598898230910509F447C02F8538896E
:104C5000233031050CF069C08F859889813091052A
:104C6000A1F02AC12F8538892630310509F4D5C035
:104C70008F859889863091050CF4A7C02F853889D7
:104C80002730310509F4F1C017C18D819E81CC0117
:104C9000A0E0B0E020E034E244EF50E0BC01CD0100
:104CA0000E946738DC01CB01BC01CD010E94860562
:104CB000DC01CB01BC01CD0120E034E244E759E442
:104CC0000E949803DC01CB01BC01CD010E94C80009
:104CD000DC01CB019A838983EFC08D819E81CC0159
:104CE000A0E0B0E020E034E244EF50E0BC01CD01B0
:104CF0000E946738DC01CB01BC01CD010E94860512
:104D0000DC01CB01BC01CD0120E034E244EF5AE4E8
:104D10000E949803DC01CB01BC01CD010E94C800B8
:104D2000DC01CB019A838983C7C08D819E81CC0130
:104D3000A0E0B0E020E034E244EF50E0BC01CD015F
:104D40000E946738DC01CB01BC01CD010E948605C1
:104D5000DC01CB01BC01CD0120E034E244EF5BE497
:104D60000E949803DC01CB01BC01CD010E94C80068
:104D7000DC01CB019A8389839FC08D819E81CC0108
:104D8000A0E0B0E020E034E244EF50E0BC01CD010F
:104D90000E946738DC01CB01BC01CD010E94860571
:104DA000DC01CB01BC01CD0120E034E244E75CE44E
:104DB0000E949803DC01CB01BC01CD010E94C80018
:104DC000DC01CB019A83898377C08D819E81CC01E0
:104DD000A0E0B0E020E034E244EF50E0BC01CD01BF
:104DE0000E946738DC01CB01BC01CD010E94860521
:104DF000DC01CB01BC01CD0120E034E244EF5CE4F6
:104E00000E949803DC01CB01BC01CD010E94C800C7
:104E1000DC01CB019A8389834FC08D819E81CC01B7
:104E2000A0E0B0E020E034E244EF50E0BC01CD016E
:104E30000E946738DC01CB01BC01CD010E948605D0
:104E4000DC01CB01BC01CD0120E034E244E75DE4AC
:104E50000E949803DC01CB01BC01CD010E94C80077
:104E6000DC01CB019A83898327C08D819E81CC018F
:104E7000A0E0B0E020E034E244EF50E0BC01CD011E
:104E80000E946738DC01CB01BC01CD010E94860580
:104E9000DC01CB01BC01CD0120E034E244E75EE45B
:104EA0000E949803DC01CB01BC01CD010E94C80027
:104EB000DC01CB019A838983EB81FC818081282FDF
:104EC00030E03E872D878D859E858130910509F4E0
:104ED0006BC02D853E852230310509F4F3C08D85E8
:104EE0009E85009709F05BC1A9E5B0E0E9E5F0E037
:104EF00080818C7F8C93EB81FC818181282F30E035
:104F00003C872B878B859C85009771F12B853C8591
:104F10002130310509F043C1ECE5F0E0898180835F
:104F2000E2E5F0E01082E8E5F0E080818695882FE8
:104F300090E0817090700097B1F3A8E5B0E0E8E5EB
:104F4000F0E0808182608C93A9E5B0E0E9E5F0E0D3
:104F50008081282FEB81FC818381882F90E0880F4E
:104F6000991F822B8C931BC1E2E5F0E0898181952A
:104F70008083E8E5F0E08081882F90E08170907078
:104F80000097B9F3A8E5B0E0E8E5F0E08081816042
:104F90008C93A9E5B0E0E9E5F0E09081EB81FC813C
:104FA0008381892B8C93FBC0A9E5B0E0E9E5F0E0B3
:104FB0008081837C8C93EB81FC818181282F30E080
:104FC0003A87298789859A850097E9F129853A8565
:104FD0002130310509F0E3C0EAE4F0E08981808303
:104FE000EBE4F0E089819A81892F99278083ECE4B2
:104FF000F0E01082EDE4F0E01082E8E5F0E080817E
:1050000082958F70882F90E0817090700097A9F33F
:10501000A8E5B0E0E8E5F0E0808180618C93A9E547
:10502000B0E0E9E5F0E08081282FEB81FC8183810D
:10503000882F90E082959295907F9827807F98277F
:10504000822B8C93ACC0ECE4F0E089818095808366
:10505000EDE4F0E089819A819C0140E050E08FEF1F
:105060009FEFA0E0B0E0821B930BA40BB50B892F40
:105070009A2FAB2FBB27A7FDBA958083E8E5F0E018
:10508000808186958695882F90E08170907000973A
:10509000A9F3A8E5B0E0E8E5F0E0808184608C93B6
:1050A000A9E5B0E0E9E5F0E08081282FEB81FC8103
:1050B0008381882F90E0880F991F880F991F822B7A
:1050C0008C936DC0A9E5B0E0E9E5F0E080818F73D5
:1050D0008C93EB81FC818181282F30E038872F83EE
:1050E0008F819885009761F12F81388521303105B6
:1050F00009F055C0E3E4F0E089818083E4E4F0E066
:105100001082E8E5F0E080818823DCF7A8E5B0E0D4
:10511000E8E5F0E0808180688C93A9E5B0E0E9E5FE
:10512000F0E08081282FEB81FC818381882F90E043
:105130009695982F882797958795822B8C932FC0CB
:10514000E4E4F0E0898181958083E8E5F0E0808106
:105150008295869586958370882F90E081709070F7
:10516000009799F3A8E5B0E0E8E5F0E0808180647D
:105170008C93A9E5B0E0E9E5F0E08081282FEB8190
:10518000FC818381882F90E0002496958795079471
:10519000969587950794982F802D822B8C936096F7
:1051A0000FB6F894DEBF0FBECDBFCF91DF9108954B
:1051B000DF93CF93CDB7DEB760970FB6F894DEBF1D
:1051C0000FBECDBF9C838B837E836D831A82198231
:1051D000EB81FC818281282F30E0388B2F878F85EF
:1051E00098898430910509F4A2C02F85388925302B
:1051F000310594F48F8598898230910509F447C070
:105200002F853889233031050CF069C08F85988946
:1052100081309105A1F02AC12F85388926303105CA
:1052200009F4D5C08F859889863091050CF4A7C004
:105230002F8538892730310509F4F1C017C18D81D8
:105240009E81CC01A0E0B0E020E034E244EF50E0E9
:10525000BC01CD010E946738DC01CB01BC01CD014E
:105260000E948605DC01CB01BC01CD0120E030E0CD
:105270004AE754E40E949803DC01CB01BC01CD0154
:105280000E94C800DC01CB019A838983EFC08D8125
:105290009E81CC01A0E0B0E020E034E244EF50E099
:1052A000BC01CD010E946738DC01CB01BC01CD01FE
:1052B0000E948605DC01CB01BC01CD0120E030E07D
:1052C0004AEF55E40E949803DC01CB01BC01CD01FB
:1052D0000E94C800DC01CB019A838983C7C08D81FD
:1052E0009E81CC01A0E0B0E020E034E244EF50E049
:1052F000BC01CD010E946738DC01CB01BC01CD01AE
:105300000E948605DC01CB01BC01CD0120E030E02C
:105310004AEF56E40E949803DC01CB01BC01CD01A9
:105320000E94C800DC01CB019A8389839FC08D81D4
:105330009E81CC01A0E0B0E020E034E244EF50E0F8
:10534000BC01CD010E946738DC01CB01BC01CD015D
:105350000E948605DC01CB01BC01CD0120E030E0DC
:105360004AE757E40E949803DC01CB01BC01CD0160
:105370000E94C800DC01CB019A83898377C08D81AC
:105380009E81CC01A0E0B0E020E034E244EF50E0A8
:10539000BC01CD010E946738DC01CB01BC01CD010D
:1053A0000E948605DC01CB01BC01CD0120E030E08C
:1053B0004AEF57E40E949803DC01CB01BC01CD0108
:1053C0000E94C800DC01CB019A8389834FC08D8184
:1053D0009E81CC01A0E0B0E020E034E244EF50E058
:1053E000BC01CD010E946738DC01CB01BC01CD01BD
:1053F0000E948605DC01CB01BC01CD0120E030E03C
:105400004AE758E40E949803DC01CB01BC01CD01BE
:105410000E94C800DC01CB019A83898327C08D815B
:105420009E81CC01A0E0B0E020E034E244EF50E007
:10543000BC01CD010E946738DC01CB01BC01CD016C
:105440000E948605DC01CB01BC01CD0120E030E0EB
:105450004AE759E40E949803DC01CB01BC01CD016D
:105460000E94C800DC01CB019A838983EB81FC8117
:105470008081282F30E03E872D878D859E85813065
:10548000910509F46BC02D853E852230310509F464
:10549000E6C08D859E85009709F04EC1A9E5B0E074
:1054A000E9E5F0E080818C7F8C93EB81FC81818148
:1054B000282F30E03C872B878B859C85009771F1E6
:1054C0002B853C852130310509F036C1ECE5F0E053
:1054D00089818083E2E5F0E01082E8E5F0E08081F8
:1054E0008695882F90E0817090700097B1F3A8E5C1
:1054F000B0E0E8E5F0E0808182608C93A9E5B0E05F
:10550000E9E5F0E08081282FEB81FC818381882F01
:1055100090E0880F991F822B8C930EC1E2E5F0E09A
:10552000898181958083E8E5F0E08081882F90E093
:10553000817090700097B9F3A8E5B0E0E8E5F0E07D
:10554000808181608C93A9E5B0E0E9E5F0E090818D
:10555000EB81FC818381892B8C93EEC0A9E5B0E0BF
:10556000E9E5F0E08081837C8C93EB81FC81818193
:10557000282F30E03A87298789859A850097E9F1B5
:1055800029853A852130310509F0D6C0EBE4F0E0F9
:1055900089819A81892F99278083EAE4F0E08981C3
:1055A0008083EDE4F0E01082ECE4F0E01082E8E5C6
:1055B000F0E0808182958F70882F90E081709070EC
:1055C0000097A9F3A8E5B0E0E8E5F0E0808180610C
:1055D0008C93A9E5B0E0E9E5F0E08081282FEB812C
:1055E000FC818381882F90E082959295907F982707
:1055F000807F9827822B8C939FC0ECE4F0E0898118
:1056000080958083EDE4F0E089819A818095909582
:10561000892F99278083E8E5F0E08081869586953B
:10562000882F90E0817090700097A9F3A8E5B0E012
:10563000E8E5F0E0808184608C93A9E5B0E0E9E5DD
:10564000F0E08081282FEB81FC818381882F90E01E
:10565000880F991F880F991F822B8C936DC0A9E525
:10566000B0E0E9E5F0E080818F738C93EB81FC8101
:105670008181282F30E038872F838F81988500978C
:1056800061F12F8138852130310509F055C0E3E4FF
:10569000F0E089818083E4E4F0E01082E8E5F0E066
:1056A00080818823DCF7A8E5B0E0E8E5F0E08081C0
:1056B00080688C93A9E5B0E0E9E5F0E08081282FCF
:1056C000EB81FC818381882F90E09695982F882725
:1056D00097958795822B8C932FC0E4E4F0E0898125
:1056E00081958083E8E5F0E08081829586958695B6
:1056F0008370882F90E081709070009799F3A8E5EF
:10570000B0E0E8E5F0E0808180648C93A9E5B0E04A
:10571000E9E5F0E08081282FEB81FC818381882FEF
:1057200090E0002496958795079496958795079421
:10573000982F802D822B8C9360960FB6F894DEBF45
:105740000FBECDBFCF91DF910895DF93CF93CDB73B
:10575000DEB72B970FB6F894DEBF0FBECDBF9A838E
:105760008983E981FA818081282F30E03B872A876D
:105770008A859B858130910559F12A853B852230A8
:10578000310509F448C08A859B85009709F068C0F7
:10579000E981FA818181282F30E03987288788853F
:1057A0009985009731F0288539852130310541F000
:1057B0000FC0E8E5F0E08081382F31703F8352C0A0
:1057C000E8E5F0E080818695982F91709F834AC02C
:1057D000E981FA818181282F30E03E832D838D81FC
:1057E0009E81009731F02D813E812130310551F0AD
:1057F00012C0E8E5F0E0808186958695382F3170FB
:105800003F8330C0E8E5F0E0808182958F70982F6B
:1058100091709F8327C0E981FA818181282F30E030
:105820003C832B838B819C81009731F02B813C81C1
:105830002130310561F014C0E8E5F0E08081829507
:10584000869586958370382F31703F830BC0E8E5CD
:10585000F0E08081982F991F9927991F9F8302C09C
:1058600021E02F838F812B960FB6F894DEBF0FBEF9
:10587000CDBFCF91DF910895DF93CF93CDB7DEB742
:1058800081E060E041E00E94753581E062E041E046
:105890000E94753581E061E041E00E94753581E04C
:1058A00066E041E00E94753581E064E041E00E94DD
:1058B000753581E065E041E00E94753580E061E08A
:1058C0000E94683681E066E041E00E94C63583E0D0
:1058D0000E94852C8EE30E94DC2C88EB0E94DC2C3D
:1058E0001092F80180E40E94DC2C1092F90180EC07
:1058F0000E94DC2C8FE30E94DC2C81E00E94852C2E
:105900001092FA01CF91DF910895DF93CF9300D0E9
:105910000F92CDB7DEB789838981282F30E03B8392
:105920002A838A819B818130910501F12A813B8103
:10593000223031052CF48A819B81009761F036C0BA
:105940002A813B8122303105E1F08A819B818330BD
:10595000910511F12BC081E064E040E00E94C63562
:1059600081E065E040E00E94C63520C081E064E04F
:1059700041E00E94C63581E065E040E00E94C63506
:1059800015C081E064E040E00E94C63581E065E03A
:1059900041E00E94C6350AC081E064E041E00E9417
:1059A000C63581E065E041E00E94C6350F900F905A
:1059B0000F90CF91DF910895DF93CF93CDB7DEB7EE
:1059C00069970FB6F894DEBF0FBECDBF898F81E017
:1059D00062E040E00E94C63581E061E040E00E9464
:1059E000C63580E0698D0E94973681E060E041E035
:1059F0000E94C63580E090E0A0EAB0E48D8B9E8BDB
:105A0000AF8BB88F6D897E898F89988D2BEA3AEAA2
:105A10004AEA50E40E949E02DC01CB01898B9A8BFA
:105A2000AB8BBC8B69897A898B899C8920E030E0BB
:105A300040E85FE30E94A40488231CF481E0888B83
:105A400091C069897A898B899C8920E030E04FE791
:105A500053E40E94440418160CF07BC06D897E89C3
:105A60008F89988D20E030E04AE754E40E94980343
:105A7000DC01CB018C879D87AE87BF876C857D85D8
:105A80008E859F8520E030E04AE755E40E949E0223
:105A9000DC01CB0188879987AA87BB8768857985D0
:105AA0008A859B8520E030E040E85FE30E94A40403
:105AB00088232CF481E090E09F838E833FC068852B
:105AC00079858A859B8520E03FEF4FE757E40E9468
:105AD000440418164CF56C857D858E859F8520E0E5
